:020000040800F2
:1000000010070020A10100083F2500088D1E0008F0
:100010003D25000889020008F129000800000000C1
:10002000000000000000000000000000E5250008BE
:10003000210300080000000041250008E725000812
:10004000BB010008BB010008BB010008BB010008A0
:10005000BB010008BB01000823030008BB01000826
:10006000BB010008BB010008BB010008BB01000880
:1000700009030008BB010008BB010008BB01000820
:10008000BB010008BB010008BB010008BB01000860
:100090008D020008BB010008BB010008BB0100087D
:1000A000BB010008BB010008BB010008BB01000840
:1000B000BB010008BB010008BB010008BB01000830
:1000C000BB010008BB010008BB010008BB01000820
:1000D000BB01000835280008BB01000841280008C2
:1000E00029030008BB010008BB010008BB01000890
:1000F000BB010008BB010008BB010008BB010008F0
:10010000BB010008BB010008BB010008BB010008DF
:10011000BB010008BB010008BB010008BB010008CF
:10012000BB010008BB010008BB010008BB010008BF
:10013000BB010008BB010008BB010008BB010008AF
:1001400099020008BB010008BB010008BB010008C0
:10015000BB010008BB01000815030008BB01000833
:10016000BB010008BB010008BB010008BB0100087F
:10017000BB010008BB010008BB0100080000000033
:10018000BB010008BB010008DFF810D000F06AF8DE
:1001900000480047852A0008AFF3008010070020C0
:1001A0000648804706480047FEE7FEE7FEE7FEE711
:1001B000FEE7FEE7FEE7FEE7FEE7FEE7752600083E
:1001C000890100082DE9F05F0546002092469B4614
:1001D00088460646814640241BE02846414647465D
:1001E000224600F02FF853465A46C01A914110D3C8
:1001F00011461846224600F016F82D1A67EB010842
:100200004F4622460120002100F00DF817EB0009AF
:100210004E41201EA4F10104DFDC484631462A4647
:100220004346BDE8F09F202A04DB203A00FA02F1A1
:10023000002070479140C2F1200320FA03F31943D4
:1002400090407047202A04DB203A21FA02F0002176
:10025000704721FA02F3D040C2F1200291400843D6
:1002600019467047064C074D06E0E06840F0010370
:1002700094E8070098471034AC42F6D3FFF788FFA4
:10028000282B0008482B0008FEE70000014800F07A
:1002900017BA000088000020014800F011BA0000E1
:1002A000B000002038B5DFF854C04FF40074CCF82B
:1002B00000400024CCF80840CCF80C400824CCF8CE
:1002C0001040DFF83CC0040A8CF800408CF80100B4
:1002D000080A8CF802008CF80310100A8CF804004D
:1002E0008CF80520180A8CF806008CF807306B464D
:1002F00062460249034800F031F838BD7802002018
:1003000039000020B0000020014800F087BC000048
:10031000B8010020014800F081BC00005801002015
:100320007047012000F06EBE4FF4805000F06ABEAE
:10033000704790F82020012A18BF022A06D0416A8F
:1003400041F4802141624FF001007047006842692A
:1003500042EA010141614FF00000704770B490F82B
:100360002040D0F800C0DCF808C0012C18BF022CD7
:1003700007D0416A41F48021416270BC4FF0010016
:1003800070471CF0E05F5FD0CCF3016CBCF1020F52
:1003900006D9416A41F40001416270BC01207047F6
:1003A000012404FA0CF41C608C684FF4C0739CB1F7
:1003B000CD6803EB0C162C434D6844EAC504056870
:1003C000AC514FF4C274066804EB0C140D6935513E
:1003D000097D01290ED108E00D88CC6803EB0C16CD
:1003E00044EA45540568AC51EBE701680D5945F402
:1003F00080750D511179D479557941EA0461947968
:10040000240444EA052421434FF4C675046805EB2F
:100410000C1561511178D47841EA046194785278CE
:10042000240444EA022211434FF4C474026804EB2A
:100430000C141151006803EB0C11425842F00102F8
:10044000425070BC00207047416A41F40011416283
:1004500070BC01207047000090F82020012A18BFCE
:10046000022A06D0416A41F4802141624FF0010026
:1004700070473F48D0F8002242F00102C0F8002245
:10048000D0F8002222F47C52C0F80022D0F80022DA
:100490004B6A42EA0322C0F800220A7D4FF00103B2
:1004A00002F01F0203FA02F2D0F81C3223EA020320
:1004B000C0F81C32CB69DBB9D0F80C3223EA020356
:1004C000C0F80C32B1F80CC04B686CF31F43D1F884
:1004D00014C000EBCC0CCCF84032B1F808C00B686B
:1004E0006CF31F43D1F814C000EBCC0CCCF84432B1
:1004F000CB69012B1AD1D0F80C321343C0F80C325F
:10050000B1F800C04B686CF31F43D1F814C000EB86
:10051000CC0CCCF84032B1F808C0CB686CF31F4368
:10052000D1F814C000EBCC0CCCF844328B69002B12
:10053000D0F804320CBF93431343C0F804320B6964
:10054000002BD0F814320CBF93431343C0F814327D
:10055000096A012904D1D0F81C121143C0F81C12F9
:10056000D0F8001221F00101C0F8001200207047FD
:1005700000640040704710B490F820C0BCF1010F37
:1005800018BFBCF1020F07D0416A41F480214162DB
:1005900010BC4FF001007047D0F800C029B1DCF862
:1005A00010C01CF0030F7DD004E0DCF80CC01CF080
:1005B000030F7ED04FF4D87C04680CEB011C54F878
:1005C0000C4014F004049460046854F80C4007BF15
:1005D000640D1460E4085460046854F80CC00CF016
:1005E000020CC2F80CC04FF4DA7C04680CEB011C5E
:1005F00054F80C4004F00F041461046854F80C40E3
:10060000C4F307249461046854F80CC04FEA1C4CEE
:10061000C2F814C04FF4DC72D0F800C002EB011233
:100620005CF802C083F800C0D0F800C05CF802C0DB
:100630004FEA1C2C83F801C0D0F800C05CF802C05F
:100640004FEA1C4C83F802C0D0F800C05CF80220CE
:10065000120EDA704FF4DE72D0F800C002EB011215
:100660005CF802C083F804C0D0F800C05CF802C097
:100670004FEA1C2C83F805C0D0F800C05CF802C01B
:100680004FEA1C4C83F806C0D0F800C05CF802208A
:10069000120EDA71006800290CBFC168016941F0CF
:1006A000200100E005E00CBFC1600161002010BC2A
:1006B0007047416A41F40011416210BC012070474B
:1006C0002DE9F05F0546006800244669D0F80490E3
:1006D0008768D0F80CB0D0F810A0D0F8188016F0C9
:1006E000010F25D017F0010F07D00121816017F00D
:1006F000020F7CD0284600F078FA17F4807F09D0EA
:1007000029684FF48070886017F4007F70D0284605
:1007100000F06DFA17F4803F0AD029684FF480305A
:10072000886017F4003F00F0B980284600F061FAB5
:1007300016F0080F18BF1BF0100F04D02968102006
:1007400044F40074C86016F0040F4FF0080718BF97
:100750001BF0080F04D02868C760284600F0DCF9B9
:1007600016F0020F07D02868C06810F0030F1CBFF6
:10077000284600F0D3F916F0400F18BF1AF0100FFA
:1007800004D02968102044F48064086116F0200F1A
:1007900018BF1AF0080F04D028680761284600F037
:1007A000EDF916F0100F07D02868006910F0030F5C
:1007B0001CBF284600F0E3F916F4003F18BF19F0FB
:1007C000100F05D0296810204860284600F0D8F99D
:1007D00016F4803F18BF19F0080F04D0286847604E
:1007E000284600F007FA16F4004F78D001E035E013
:1007F00044E019F0040F6FD016F4807F1CBF18F08E
:10080000010F44F0010416F4007F1CBF18F0020F22
:1008100044F0020416F4806F1CBF18F0040F44F07B
:10082000040416F4006F18BF18F0700F54D008F0CD
:100830007000402808BF44F0400448D03EDC102837
:1008400008BF44F0080442D0202808BF44F0100438
:100850003DD0302808BF44F0200438E017F0040FE2
:1008600018BF4FF400647FF448AF17F0080F0ABFB9
:1008700028464FF4805400F0B7F93EE717F4806F34
:1008800018BF44F400547FF445AF17F4006F0ABF5B
:10089000284644F4804400F0A9F93BE717F4802F80
:1008A00018BF44F400447FF443AF17F4002F0ABF8D
:1008B000284644F4803400F09BF939E7502808BFFB
:1008C00044F0800403D0602808BF44F48074286892
:1008D000816921F070018161296804204860002C41
:1008E00008BFBDE8F09F686A204368622846FFF7AA
:1008F00041FEBDE8F09F0000002804BF01207047C2
:1009000070B5044690F82000002804BF204600F08F
:1009100089F82068016821F00201016000F0A8FC5C
:100920000546206840684FF0050610F0020F09D018
:1009300000F09EFC401B0A2817D82068406810F081
:10094000020FF5D12068016841F00101016000F05B
:100950008FFC05462068406810F0010F12D100BFDF
:1009600000F086FC401B0A2807D9606A40F400307A
:10097000606284F82060012070BD2068406810F03B
:10098000010FEDD0207E0128206801680CBF41F0E6
:10099000800121F080010160607E012820680168EB
:1009A0000CBF41F0400121F040010160A07E012810
:1009B000206801680CBF41F0200121F02001016096
:1009C000E07E0128206801680CBF21F0100141F091
:1009D00010010160207F0128206801680CBF41F0F0
:1009E000080121F008010160607F0128206801688A
:1009F0000CBF41F0040121F004010160D4E90201BF
:100A00000843D4E90412114308436168491E0843AE
:100A10002168C86100206062012084F82000002065
:100A200070BD0000F0B587B00021009101910291E6
:100A300003910491334B0668334918680224421C21
:100A400009253248A6F180474FF0030CB7F5C84797
:100A500012D0A6F18047B7F5D0471CBF07B0F0BD54
:100A6000066846F0806606600668012A06F0806621
:100A700005961A602BD122E01A60012A07D102687C
:100A800042F000720260006800F000700590086893
:100A900040F0080008600868CDE900C400F00800D4
:100AA000CDE904506946CDF80CC0194800F0B6FAFB
:100AB00000221146142000F04DFC14201EE00268B4
:100AC00042F000720260006800F000700590086853
:100AD00040F0020008600868694600F002000590D6
:100AE0006020CDE90004CDE903C50A4800F096FA7C
:100AF00000221146402000F02DFC402000F01AFC9E
:100B000007B0F0BD1C0000203038024040380240E1
:100B1000000C0240000402407047000000B58BB09A
:100B200002AB04AA0021FFF726FD0498A0F20120E1
:100B3000062884BF0BB000BDC0B20E4900EB800296
:100B400008700D4901EB420031F812300381BDF805
:100B500008305BBA21F81230BDF80A1049BA41805A
:100B6000BDF80C1049BA81809DF80E1081710BB050
:100B700000BD0000300000201802002070477047C0
:100B80007047000070B5044690F82000012804D09A
:100B9000606A40F4002060621CE0022084F82000BB
:100BA0002068016821F00101016000F061FB054649
:100BB0002068406810F0010F13D000BF00F058FB10
:100BC000401B0A2808D9606A40F4003060620520A2
:100BD00084F82000012070BD2068406810F0010FEB
:100BE000ECD10020606270BD70477047704770475D
:100BF00070477047704790F83510022903D0802164
:100C0000416501207047052180F8351000680168B2
:100C100021F0010101600020704700002DE9F84338
:100C200004460027009773484FF41651A56D0068DD
:100C3000B0FBF1F92E6894F85C00082101FA00F08D
:100C4000304211D02068026812F0040F0CD0026804
:100C500022F00402026094F85C0001FA00F0A8603F
:100C6000606D40F00100606594F85C004FF0010891
:100C700008FA00F0304209D02168496911F0800F6C
:100C800004D0A860606D40F00200606594F85C10CC
:100C900004208840304209D02168096811F0020F11
:100CA00004D0A860606D40F00400606594F85C10AA
:100CB00010208840304220D02168096811F0080FC8
:100CC0001BD0A8602068016811F4802F09D000684B
:100CD00010F4002F02D0A16C79B10CE0216C51B955
:100CE0000BE0016811F4807F03D1016821F0080155
:100CF0000160216C09B12046884794F85C102020DF
:100D0000884030424AD02168096811F0100F45D060
:100D1000A86094F8350005282068016809D011F40E
:100D2000802F2BD0006810F4002F24D0E16B21B36A
:100D300032E021F0160101602068416921F0800154
:100D40004161206C002804BFA06C002804D02068FA
:100D5000016821F00801016094F85C004FF03F0148
:100D600001FA00F0A86084F8347084F83580216DB1
:100D7000D1BBBDE8F883616C71B90FE0016811F473
:100D8000807F07D1016821F01001016084F8347080
:100D900084F83580E16B09B120468847606D0028F2
:100DA00008BFBDE8F883606D10F0010F17D04FF059
:100DB000050084F835002068016821F00101016018
:100DC000009800F101000090484504D820680068B0
:100DD00010F0010FF4D184F8347084F83580E16CA0
:100DE000002908BFBDE8F883204601B0BDE8F04304
:100DF000084700002C00002070B5044600F038FAC7
:100E00000546002C04BF012070BD002684F8346024
:100E1000022084F835002068016821F0010101609A
:100E20002068006810F0010F10D000BF00F020FA19
:100E3000401B052805D920206065032084F8350073
:100E400070BD2068006810F0010FEFD121680868BC
:100E50003D4A1040D4E901231A43D4E9033C43EA54
:100E60000C031A4363691A43A3691A43E3691A43DB
:100E7000236A1A431043626A042A03D1D4E90B237C
:100E80001A4310430860D4F800C0DCF814000123B2
:100E900020F00701606A40EA0102042837D1A16A04
:100EA000E06A0A4318B3A56955B1B5F5005F14D0DF
:100EB00000291CBF0129022921D003291CD026E0CA
:100EC00019B1012905D0022921D110F0807F1ED04F
:100ED00015E0B0F1C07F1AD111E081B1012907D02E
:100EE00002290CD0032908BFB0F1C07F07D00EE063
:100EF00010F0807F03D10AE010F0807F07D04FF020
:100F00004000606584F835304FF0010070BDCCF8CA
:100F1000142020680D4AC1B2A1F11001A2FB0121E9
:100F20000B4A4FEA11110329525CE2656FF3090085
:100F300088BF001D3F219140A0658160666584F8EF
:100F40003530002070BD00003F8010F0ABAAAAAA87
:100F5000082B000870B5044600F08AF90546B4F184
:100F6000FF3F02D004480078044400F081F9401BA0
:100F7000A042FAD370BD00002000002070B51F4CC5
:100F800005466068206000F073F96060E069401C0D
:100F9000E061B5F5805F1CBF012D70BD00F0C2FFA0
:100FA000012818BF70BD00F073FF0025012814D17F
:100FB000134E81020122304600F055F9C820FFF798
:100FC000C9FF00223115304600F04DF9A560E560FB
:100FD00025616561A5616560256000F059FF022803
:100FE00018BF70BD962000F0FFFFA560E560256189
:100FF0006561A5616560256070BD0000440000204A
:10100000001C024004490A68024208BF704710B53C
:101010000860FFF7B3FF10BD143C01402DE9F84F05
:1010200000220127884D03264FF00F080B6807FAAE
:1010300002FC03EA0C03634540F0FF804C68012C7E
:1010400018BF022C03D0112C18BF122C1AD1D0F8C3
:1010500008904FEA420406FA04FA29EA0A09D1F88C
:101060000CA00AFA04F444EA09048460446824EAFF
:101070000C0C0C79C4F3001404FA02F444EA0C0CCE
:10108000C0F804C0D0F80C904FEA420CD1F808A088
:1010900006FA0CF429EA04090AFA0CFA4AEA0909E0
:1010A000C0F80C90D1F80490B9F1020F18BFB9F153
:1010B000120F15D14FEAD20900EB890ADAF820B0F5
:1010C0004FEA42794FEAD96908FA09FE2BEA0E0B7A
:1010D000D1F810E00EFA09F949EA0B09CAF8209094
:1010E000D0F8009029EA040491F8049009F003096B
:1010F00009FA0CFC4CEA040CC0F800C0D1F804C09A
:101100001CF0805F7DD0D5F800C04CF4804CC5F851
:1011100000C0D5F800C00CF4804CCDF800C022F01F
:10112000030C0CF1804404F59834D4F808984FEA85
:10113000827C4FEA1C7C08FA0CFA29EA0A09A0F121
:10114000804ABAF5003A38D0A0F1804ABAF5013A9F
:1011500008BF4FF0010A30D0A0F1804ABAF5023A38
:1011600008BF4FF0020A28D0A0F1804ABAF5033A2E
:1011700008BF4FF0030A20D0A0F1804ABAF5043A24
:1011800008BF4FF0040A18D0A0F1804ABAF5053A1A
:1011900008BF4FF0050A10D0A0F1804ABAF5063A10
:1011A00008BF4FF0060A08D0A0F1804ABAF5073A06
:1011B0000CBF4FF0070A4FF0080A0AFA0CFC4CEA81
:1011C000090CC4F808C8214CD4F800C0D1F8049028
:1011D0002CEA030C19F4803F18BF4CEA030CC4F846
:1011E00000C01B4CD4F800C0D1F804902CEA030CCA
:1011F00019F4003F18BF4CEA030CC4F800C0154CAA
:1012000000E01AE0D4F800C0D1F804902CEA030CF6
:1012100019F4801F18BF4CEA030CC4F800C00E4C30
:10122000D4F800C0D1F804902CEA030C19F4001F84
:1012300018BF4CEA030CC4F800C0521C102AFFF47B
:10124000F5AEBDE8F88F000044380240003C014094
:10125000043C0140083C01400C3C0140006908404E
:1012600018BF01207047002A08BF09048161704738
:101270000148806870470000200000200248816813
:101280000278114481607047200000200B4810B59F
:10129000016841F400710160016841F480610160FE
:1012A000016841F480710160032000F085F800209E
:1012B00000F006F800F024F8002010BD003C0240C9
:1012C00070B50D4D04464FF47A712878B1FBF0F0FB
:1012D0000A490968B1FBF0F000F07AFB48B9102C1C
:1012E00007D200222146501E00F034F800206C6026
:1012F00070BD012070BD0000200000202C000020E7
:101300000A4881B0016841F480410160006800F43E
:10131000804000900648016841F0805101600068FB
:1013200000F08050009001B0704700004438024047
:10133000403802400028B8BF704700F01F0101226A
:1013400002FA01F14009800000F1E020C0F800112C
:1013500070470000174B10B41B68C3F30223C3F19E
:10136000070CBCF1040F88BF4FF0040C1C1D072CA8
:1013700034BF0023DB1E012404FA0CFCACF1010C89
:101380000CEA0101994004FA03F35B1E1A40114371
:1013900000284FEA0111A1BF00F1E02080F80014FD
:1013A00010BC704700F00F0000F1E02080F8141D21
:1013B00010BC70470CED00E0074900F007000A6818
:1013C0004FF6FF031A4042EA002040F0FD7040F063
:1013D00080600860704700000CED00E0002804BF4A
:1013E000012070472DE9F0474D4E04460F46306806
:1013F00001F0FF0800F00F00B84206D286F8008026
:10140000306800F00F00B84261D12068454D10F0FF
:10141000020F14D010F0040F03D0286840F4E050FD
:101420002860207810F0080F03D0286840F460404E
:1014300028602868A16820F0F00008432860207820
:1014400010F0010F37D060683749012823D00228F7
:1014500018BF0328096823D011F0020F37D029687C
:1014600021F0030141EA00002860FFF701FF8146F7
:101470002868616800F00C00B0EB810F18BF41F2E2
:10148000883A18D0FFF7F4FEA0EB090050450BD9BD
:101490000320BDE8F087096811F4003FDFD116E0B2
:1014A00011F0007FDBD112E02868616800F00C00C9
:1014B000B0EB810FE6D1306800F00F00B84209D9D7
:1014C00086F80080306800F00F00B84202D001209A
:1014D000BDE8F087207810F0040F05D02868E16897
:1014E00020F4E05008432860207810F0080F06D060
:1014F0002868216920F4604040EAC100286000F0BB
:101500003BF82968094AC1F30311515CC8400849F6
:10151000086008480068FFF7D3FE0020BDE8F087A8
:10152000003C02400838024000380240102B0008FE
:101530002C000020240000200448054900680968A8
:10154000044AC1F38221515CC84070472C0000203E
:1015500008380240202B0008044805490068096843
:10156000044AC1F34231515CC84070472C0000204E
:1015700008380240202B00081848006810F00C02C0
:10158000174808BF70471749042A04BF0846704728
:10159000082A18BF704710B5134C2268236802F060
:1015A0003F0213F4800F08D020680023C0F3881096
:1015B000A0FB0101FEF706FE07E021680023C1F34E
:1015C0008811A1FB0001FEF7FDFD2168C1F3014177
:1015D000491C4900B0FBF1F010BD00000838024082
:1015E0000024F400001BB70004380240002804BFA8
:1015F000012070472DE9F84F04460078DFF8AC83EE
:1016000010F0010FA8F1040558D008F1040001689A
:1016100001F00C01042909D0006800F00C00082832
:101620000DD1D8F8000010F4800F08D0286810F40D
:10163000003F43D06068002800F0B1813EE0606860
:10164000B0F5803F19D0B0F5A02F28680CBF40F44A
:10165000802020F48030286028680CBF40F480305F
:1016600020F4802028606068B8B1FFF701FE0646CC
:10167000286810F4003F05D020E0286840F480304E
:101680002860F0E7FFF7F4FD801B642800F2278153
:10169000286810F4003FF5D010E0FFF7E9FD06469A
:1016A000286810F4003F09D0FFF7E2FD801B642892
:1016B00000F21581286810F4003FF5D12078BC4F66
:1016C00010F0020F47D0BB48016811F00C0F16D084
:1016D000006800F00C00082804BFD8F8000010F4DF
:1016E000800F0CD0E06820B34FF001003860FFF7A6
:1016F000BFFD0646286810F0020F09D011E02868E7
:1017000010F0020F1CBFE06801280AD000F047B9B2
:10171000FFF7AEFD801B02287ED8286810F0020F6C
:10172000F6D02868216920F0F80040EAC10028605E
:1017300011E000203860FFF79BFD0646286810F096
:10174000020F08D0FFF794FD801B022864D8286898
:1017500010F0020FF6D1207810F0080F2AD096482A
:10176000964E616999B101210160FFF781FD8146C3
:10177000306810F0020F1DD1FFF77AFDA0EB0900D1
:10178000022849D8306810F0020FF5D012E000218D
:101790000160FFF76DFD8146306810F0020F09D03F
:1017A000FFF766FDA0EB0900022835D8306810F07D
:1017B000020FF5D1207810F0040F77D080484FF059
:1017C000000B006810F0805F0AD17D48016841F08D
:1017D0008051016000684FF0010B00F080500090D4
:1017E000784E306810F4807F14D1306840F48070F7
:1017F0003060FFF73DFD8146306810F4807F09D1ED
:10180000FFF736FDA0EB0900022868D8306810F415
:10181000807FF5D06C4E00E061E0A06801281BD00D
:10182000052830680CBF40F0040020F00100306053
:1018300030680CBF40F0010020F00400C6F8000042
:10184000A06841F2883AB8B1FFF712FD81463068CE
:1018500010F0020F05D021E0306840F00100306048
:10186000EEE7FFF705FDA0EB0900504537D83068DB
:1018700010F0020FF5D011E0FFF7FAFC8146306856
:1018800010F0020F0AD000BFFFF7F2FCA0EB090036
:10189000504524D8306810F0020FF5D1BBF1000F8D
:1018A00004D04748016821F080510160A069E8B385
:1018B0004049096801F00C01082950D002284FF076
:1018C000000038660ED0FFF7D3FC0446286810F0FD
:1018D000007F67D0FFF7CCFC001B02283AD9032019
:1018E000BDE8F88FFFF7C4FC0646286810F0007FBB
:1018F00009D000BFFFF7BCFC801B0228EFD8286886
:1019000010F0007FF6D1D4E907010843A16A2F4AFD
:10191000490802EB0141626A41EA8211084394F8E6
:101920002C1040EA0160C8F8000000E03AE0012015
:101930003866FFF79DFC0446286810F0007F31D11F
:10194000FFF796FC001B0228C9D8286810F0007F1A
:10195000F6D027E0286810F0007FBBD122E00128F4
:1019600008BFBDE8F88FD8F80000E26900F48001F4
:10197000914214D1226A00F03F0191420FD147F603
:10198000C071626A0140914209D1A26A00F44031FB
:10199000914204D1E16A00F07060884202D00120D7
:1019A000BDE8F88F0020BDE8F88F00000438024041
:1019B0000000474208380240800E47427438024017
:1019C0004038024000700040703802400000FFFFC5
:1019D000411EB1F1807F24BF012070474FF0E0200D
:1019E0004161054AF02182F8141D0021816107211F
:1019F00001610020704700000FE000E07047000028
:101A000070B5016804460868CA684B6910F00F0F8A
:101A10004FF0200541D003F0010C02F490765CEA0F
:101A2000060600F0FB8010F0010F18BF12F4807F53
:101A300003D0E66B46F00106E66310F0040F18BF12
:101A400013F0010F03D0E66B46F00206E66310F0D8
:101A5000020F18BF13F0010F03D0E36B43F0040330
:101A6000E36310F0080F1CBF02F0200353EA0C03DD
:101A700003D0E36B43F00803E363E36B002B08BF81
:101A800070BD10F0200F18BF12F0200F73D094F823
:101A90003A202046222A4BD088E010F0200F18BFB1
:101AA00012F0200F00F0BA8094F83A202046222A43
:101AB00018BF70BD8268B2F5805F23D0026982B31F
:101AC000496801F07F02816A4B1C83620A70C18DF4
:101AD000491E0904090CC18518BF70BD0168CA6898
:101AE00022F02002CA600168CA6822F48072CA60CB
:101AF00001684A6922F001024A6180F83A5000F018
:101B0000C3F970BD0369826A4968002B14BFC9B26A
:101B1000C1F308011180816A14BF491C891C8162CC
:101B2000D5E7FFE74A68816A4B1C83620A70CEE7FB
:101B30008268B2F5805F0FD00269EAB1496801F0AE
:101B40007F02816A4B1C83620A70C18D491E0904A1
:101B5000090CC1852AD116E00369826A4968002B05
:101B600014BFC9B2C1F308011180816A14BF491CB6
:101B7000891C8162E9E719E04A68816A01F1010381
:101B800083620A70E1E70168CA6822F02002CA6035
:101B90000168CA6822F48072CA6001684A6922F04A
:101BA00001024A6180F83A5000F06EF920684169FC
:101BB000E26BC1F3801112F0080F08BF002926D094
:101BC000C16821F49071C1602068416921F0010170
:101BD000416184F83A502068416911F0400F12D0F9
:101BE000416921F040014161606B60B12D4901659F
:101BF000606BFFF700F8002808BF70BD606B016DD7
:101C0000BDE8704008472046FFF7F8FE70BD20464B
:101C1000FFF7F4FE0020E06370BD00BF10F0800FFE
:101C200018BF12F0800F2CD094F83900212818BF6B
:101C300070BDA068B0F5805F206A16D0411C21629B
:101C4000216800784860E08C401E0004000CE084AD
:101C500018BF70BD2068C16821F08001C160206894
:101C6000C16841F04001C16070BD0088C0F3080048
:101C7000486020690028206A14BF401C801C206234
:101C8000E1E710F0400F14BF12F0400F70BD204686
:101C9000CA6822F04002CA6084F8395000F0F5F8B2
:101CA00070BD000091260008002804BF0120704785
:101CB00070B5044690F83900002520B984F83850F2
:101CC000204600F023F8242084F839002068C168F9
:101CD00021F40051C160204600F0E2FC2068016957
:101CE00021F4904101612068416921F02A0141619C
:101CF0002068C16841F40051C160E563202084F888
:101D0000390084F83A00002070BD00002DE9F04F42
:101D100087B0002400940194029403940494016811
:101D200006464F4802250327A1F180424FF0070BDA
:101D30004FF000684FF480694FF4403AB2F58832B2
:101D400043D0A1F18042B2F590421CBF07B0BDE87C
:101D5000F08F44490A6842F480220A60096801F45D
:101D600080210591016841F0040101600068694625
:101D700000F0040005904FF44060CDE90005CDE986
:101D8000037B3948FFF74AF9394D38482860C5E9DF
:101D90000184C5E903496C61AC61C5E9074A28467D
:101DA0006C62FFF729F8002818BFFEF7C1FA7563C7
:101DB000002211462720AE63FFF7CCFA5FF0270020
:101DC000FFF7B8FA07B0BDE8F08F2A490A6842F079
:101DD00010020A60096801F010010591016841F0E4
:101DE00002010160016801F002010591016841F002
:101DF000010101600068694600F001000590802043
:101E0000CDE90005CDE9037B1B48FFF707F94FF447
:101E10000070CDE90005CDE902476946CDF810B064
:101E20001648FFF7FBF8174D1548C5E90008402094
:101E3000C5E90204C5E90494AC61C5E9074A28462E
:101E40006C62FEF7D9FF002818BFFEF771FA356300
:101E5000002211462520AE63FFF77CFA2520AFE76C
:101E600030380240403802400008024028600240FA
:101E7000B801002044380240000402400000024043
:101E8000B86402405801002070477047FEE7000028
:101E90002DE9F041214C224F01256069022640B90D
:101EA00001213846FFF7DAF9012811D060690028CE
:101EB00030D001213846FFF7D1F9C8B16069012857
:101EC00023D0022802BFA0690228BDE8F08121E0EA
:101ED000D4E90010A0EB0101A1F12900132838BFBB
:101EE0006561A1F15B00132838BF6661E1D3DDE7CE
:101EF000D4E90010401AA0F12901132938BFA561C7
:101F00005B38132838BFA661D8E7A069012808BF4D
:101F1000BDE8F0810020BDE8F08100004400002011
:101F2000001402402DE9F0412D4CA16800290CBF9E
:101F300001200020E268002A0CBF01220022104389
:101F40002269002A0CBF01220022104335D000264E
:101F5000244F012521B901213846FFF77FF918B137
:101F6000A068012809D02AE0D4E90010401A5B38A3
:101F7000132834BFA560A66021D201213846FFF79F
:101F80006DF9012803D0A068012818D10AE0D4E92E
:101F90000010401A5B38132832BFE560A660E66087
:101FA0000DD2F0E7E068012818D1D4E90010401AFA
:101FB000BF38132838BF256110E001290ED000205A
:101FC000E168012918BF002108402169012918BFD3
:101FD0000021084018BF0120BDE8F0810120EFE793
:101FE00044000020001402402DE9F05F914DB0F153
:101FF00000082DED068BB0EE009AB7EE00AACCBF1C
:1020000001204FF0FF3028808B4A0020171D1080E0
:1020100002F10803388002F10C0A1880AAF80000C7
:10202000DFED869A02F11A0602F11001C6ED009A60
:102030000880508078805880AAF80200C6ED019A86
:1020400048802888002819BFDFED7D8A9FED7D8AB2
:10205000BDEC068BBDE8F09F0024DFF8DCB1204624
:1020600000F002FDB0F9020000EE100AB5F9000020
:1020700000EE900AB8EEC00AF8EEE00A10EEA80AE8
:10208000BDEEC00A10EE100A27F81400204600F03A
:10209000EBFCB0F80090204600F0E6FC0089A9EBCC
:1020A000000001B2684820F81410B5F90020012A98
:1020B00010D1B1F1FF3F0DDA06EB8401D5ED060A30
:1020C00091ED000A80EE201ABDEEC10A10EE101A42
:1020D00020F81410B2F1FF3F11D130F9141001298A
:1020E0000DDD06EB8401D5ED060A91ED000A80EEC8
:1020F000201ABDEEC10A10EE101A20F8141037F99C
:10210000141006EB840200EE101AB8EEC00A20EE9E
:10211000090ABDEEC00A10EE101A09B22AF814100E
:1021200030F9140092ED000A00EE900AF8EEE00A91
:1021300000EE880A00EE901AB8EEE01A00EE908ADF
:1021400082ED000AF8EEE00A30EEC00A31EE000A35
:10215000BDEEC00A10EE100A01B23C4820F814107F
:1021600001F57A61B1F5FA5F84BF4FF47A6120F826
:10217000141030F814002BF81400601C04B2022C68
:10218000FFF66DAF95ED060A00231A4630EE0A0AF7
:1021900085ED060ABBF90210BBF90000FEF782F8D4
:1021A0000120FEF7D7FEDFF8A8B000240BEB4409AE
:1021B000B9F81000A9F81C00204600F055FC008872
:1021C000A9F81000204600F04FFC4088A9F818003C
:1021D000601C04B2022CE9DB00EE108AD6ED000A86
:1021E000B8EEC00AB4EEE00AF1EE10FA0AD900EE39
:1021F000108AD6ED010AB8EEC00AF4EEC00AF1EE7C
:1022000010FA0EDB00231A4619461846FEF74AF864
:10221000288840422880C5ED069ABDEC068BBDE8B3
:10222000F09F288800287FF417AFBDEC068BBDE82F
:10223000F09F000064000020660000200000000005
:102240000020B2440AD7A33B6E0000207600002095
:10225000F00200200F4810B50D49016003214160D4
:1022600000214FF410228160C0E903124FF40012E4
:102270004261017641768176C17601774177FEF73A
:102280003BFB002808BF10BDBDE81040FEF750B86A
:1022900000640040880000200F4810B50D4901601F
:1022A0000321416000214FF410228160C0E9031234
:1022B0004FF400124261017641768176C176017752
:1022C0004177FEF719FB002808BF10BDBDE810409C
:1022D000FEF72EB800680040B0000020114808B595
:1022E000016841F400110160016801F400110091DE
:1022F000016841F4800101600068002200F4800060
:10230000009011460C20FFF725F80C20FFF712F87B
:10231000002211464620FFF71DF8BDE80840462080
:10232000FFF708B8303802402DE9F04786B00024A6
:102330005D4800940194029403940494016841F070
:1023400002010160016801F002010591016841F09C
:1023500001010160016801F001010591016841F08E
:1023600008010160016801F008010591016841F070
:1023700004010160016801F004010591016841F068
:1023800020010160016801F020010591016841F020
:1023900080010160016801F080010591016841F050
:1023A000100101600068414F00F01000059000220C
:1023B00040213846FEF757FFDFF8F4A000224FF423
:1023C000E0515046FEF74FFFDFF8E88000224FF45F
:1023D000C0414046FEF747FFDFF8DC9000224FF493
:1023E00060414846FEF73FFF0125344E0095CDE998
:1023F000016469463248FEF711FE40200090CDE9A5
:102400000154694638460394FEF708FE4FF4E05045
:102410000090CDE90154694650460394FEF7FEFD55
:102420004FF4C0400090CDE9015469464046039402
:10243000FEF7F4FD4FF4206000900227CDE901740F
:1024400069464046CDE90345FEF7E8FD2803CDE99E
:102450000006694602944846FEF7E0FD6803CDE9B0
:102460000005CDE9027469464846FEF7D7FD4FF4F2
:1024700040400090CDE90154694648460394FEF778
:10248000CDFD002201210620FEF764FF0620FEF7A5
:1024900051FF002201212820FEF75CFF2820FEF7D3
:1024A00049FF06B0BDE8F08730380240000802401E
:1024B000001C0240001002400004024000003110E5
:1024C000001402400C4810B50A4901604FF4E13194
:1024D0004160002181600C22C160C0E90412816169
:1024E000C161FFF7E1FB002808BF10BDBDE8104047
:1024F000FDF71EBF00100140D80000200D4810B5A8
:102500000B4901600C49416000214FF480628160F9
:10251000C0E903120C22C0E90521C161FFF7C4FB29
:10252000002808BF10BDBDE81040FDF701BF000046
:102530000048004018010020A0860100FEE7704717
:1025400070470000244B10B4D3F800C0DCF81440EE
:1025500044F04004CCF814401B68D3F80CC04CF095
:10256000100CC3F80CC01D4BD3F800C0DCF80040C1
:1025700024F00104CCF80040D3F800C0DCF800C01F
:102580001CF0010F0FD000BFD3F800C0DCF80040F2
:1025900024F00104CCF80040D3F800C0DCF800C0FF
:1025A0001CF0010FF0D11C68DFF834C0C4F808C07B
:1025B000D3F800C0CCF80C001868016118684260BC
:1025C0001868016841F4802101601868016841F0D1
:1025D0000101016010BC704718010020B801002003
:1025E000044800407047FEF749BE000030B593B084
:1025F00000241E4802940394049405940C940D94B2
:102600000E940F941094016841F0805101600068AD
:1026100000F0805011901648016841F4804101603B
:102620000068022500F48040119001200090000411
:1026300001908001CDE9065006200890A820CDE940
:10264000090504200B906846FEF7D0FF0F20CDE966
:102650000C054FF4A050CDE90E40E8021090052182
:102660000CA8FEF7BBFE13B030BD0000403802409E
:10267000007000400448016841F4700101600349A2
:102680004FF000600860704788ED00E008ED00E062
:1026900010B5806B0021C185C184FFF7AFF910BD73
:1026A0002DE9F041044600680169E26821F44051D7
:1026B000114301612169A068E2690843616911431E
:1026C00008432168CA6822F4037222F414421043BA
:1026D000C86020684169A26921F4407111434161D9
:1026E000E16919263227B1F5004F4F4A4F48504D46
:1026F00021684FF0000825D0814218BF914270D167
:10270000FEF72AFF61688B0F8A00A0FB0601FDF728
:1027100059FD0146A5FB012040096FF01802424314
:1027200001EB820107EB0111A5FB0121490901F031
:10273000F00202EB001001F00F01084421688860EC
:10274000BDE8F081814218BF914224D1FEF704FF19
:1027500061684A18A0FB060148EB0803FDF732FD4B
:102760000146A5FB0120420908466FF018015143BC
:1027700000EB810007EBC000A5FB0010130140092E
:1027800000F0F80103EB410100F007000844216864
:102790008860BDE8F081FEF7CFFE61684A18A0FBB3
:1027A000060148EB0803FDF70DFD0146A5FB0120DE
:1027B000420908466FF01801514300EB810007EB16
:1027C000C000A5FB00101301400900F0F80103EB65
:1027D000410100F00700084421688860BDE8F081ED
:1027E000FFE7FEF7A9FE61688B0F8A00A0FB0601D8
:1027F000FDF7E8FC0146A5FB012040096FF0180237
:10280000424301EB820107EB0111A5FB01214909BC
:1028100001F0F00202EB001001F00F010844216802
:102820008860BDE8F0810000001401400010014004
:102830001F85EB510148FFF7E3B80000D8000020E6
:1028400038B465480068016811F0200F04D00168B1
:102850004068009038BC70476049096811F0100F5B
:1028600004BF38BC70470168406800905C4A10683B
:102870000168D0F800C011F4002F5A494FF024032A
:102880002CF0010CC0F800C053D0D2F800C0DCF826
:102890000400C0F1240080B20880CCF80430524912
:1028A0008B6A23F400238B6211680A6842F00102EC
:1028B0000A6012281CBF38BC70474C48A0F11601B2
:1028C00010F8242F437842EA0322C2F30A040C8052
:1028D00042788378D20842EA4312C2F30A0CA1F884
:1028E00002C08278C378920942EA8302037942EAFD
:1028F0008322C2F30A028A80037945795B0843EA9E
:10290000C513C3F30A03CB804579C5F301158D7256
:1029100040798009C872A4F580600880ACF58060B9
:102920004880A2F580608880A3F58060C88038BCAC
:1029300070471068D0F804C0CCF1240C1FFA8CFC4E
:10294000A1F800C043601068016841F400210160F3
:102950001068016841F001010160BCF1120F1CBF59
:1029600038BC70472148A0F116010278437842EA4A
:102970000322C2F30A0CA1F800C042788378D2087F
:1029800042EA4312C2F30A024A808378C4789B0960
:1029900043EA8403047943EA8423C3F30A038B8064
:1029A00004794579640844EAC514C4F30A04CC8068
:1029B0004579C5F301158D7240798009C872ACF56F
:1029C00080600880A2F580604880A3F580608880E0
:1029D000A4F58060AAE7000018010020004800402C
:1029E000B80100204200002000600240A602002042
:1029F000FEE702E008C8121F08C1002AFAD170479A
:102A00007047002001E001C1121F002AFBD170476E
:102A100000B58BB000200121CDE90601089100909E
:102A20000190029003900590049069460C48FDF7D0
:102A300013FD0B48FEF7A6F802210948FDF779FCC3
:102A40000E200990059069460648FDF705FD0548EA
:102A5000FEF798F802210348FDF76BFC0BB000BDB0
:102A600088000020B000002000F00300024900EBC5
:102A7000800001EB400070471802002000487047BA
:102A80009002002010B5FEF701FCFFF7AFFDFFF745
:102A90004BFCFFF723FCFFF715FDFFF72FFDFFF7BA
:102AA000D9FBFFF7F9FBFFF7B3FF0B48FEF736F84A
:102AB0000A48FEF733F800F015F800F01BF8FFF7AE
:102AC000DDFF074988619620FFF78EFA6FF09500C9
:102AD000FFF78AFA002010BD88000020B000002017
:102AE0000000002002492422A1F12400FFF72ABDA2
:102AF000CA02002003480068416941F08001416139
:102B000070470000D80000200006101600061016BE
:102B1000000000000000000001020304060708098D
:102B20000000000001020304482B00080000002000
:102B300088000000F2290008D02B0008880000203F
:102B400088060000022A00080000000000000000C3
:102B50000000000000000000000000000000000075
:102B60000000000000000000010000001000000054
:102B7000000000000024F40000000000000000003D
:102B80000000000000000000000000000000000045
:102B90000000000000000000000000000000000035
:102BA0000000000000000000000000000000000025
:102BB0000000000000000000000000000000000015
:102BC0000000000000000000000000000000000005
:040000050800018965
:00000001FF
