:020000040800F2
:10000000A0060020A1010008731B0008C519000804
:10001000711B0008AD020008911F000800000000DD
:10002000000000000000000000000000D91B0008D4
:10003000ED03000800000000751B0008DB1B000832
:10004000BB010008BB010008BB010008BB010008A0
:10005000BB010008BB010008BB010008BB01000890
:10006000BB010008BB010008BB010008BB01000880
:1000700059030008BB010008BB010008BB010008D0
:10008000BB010008BB010008BB010008BB01000860
:10009000B1020008BB010008BB010008BB01000859
:1000A000BB010008BB010008BB010008BB01000840
:1000B000BB010008BB010008BB010008BB01000830
:1000C000BB010008BB010008BB010008BB01000820
:1000D000BB010008D11E0008BB010008DD1E00089E
:1000E000BB010008BB010008BB010008BB01000800
:1000F000BB010008BB010008BB010008BB010008F0
:10010000BB010008BB010008BB010008BB010008DF
:10011000BB010008BB010008BB010008BB010008CF
:10012000BB010008BB010008BB010008BB010008BF
:10013000BB010008BB010008BB010008BB010008AF
:10014000BD020008BB010008BB010008BB0100089C
:10015000BB010008BB01000865030008BB010008E3
:10016000BB010008BB010008BB010008BB0100087F
:10017000BB010008BB010008BB0100080000000033
:10018000BB010008BB010008DFF810D000F07CF8CC
:100190000048004731200008AFF30080A00600208F
:1001A0000648804706480047FEE7FEE7FEE7FEE711
:1001B000FEE7FEE7FEE7FEE7FEE7FEE7651C000858
:1001C000890100082DE9F05F0546002092469B4614
:1001D00088460646814640241BE02846414647465D
:1001E000224600F041F853465A46C01A914110D3B6
:1001F00011461846224600F028F82D1A67EB010830
:100200004F4622460120002100F01FF817EB00099D
:100210004E41201EA4F10104DFDC484631462A4647
:100220004346BDE8F09FD2B201E000F8012B491E21
:10023000FBD270470022F6E710B513460A46044683
:100240001946FFF7F0FF204610BD202A04DB203AB4
:1002500000FA02F1002070479140C2F1200320FA19
:1002600003F3194390407047202A04DB203A21FA17
:1002700002F00021704721FA02F3D040C2F12002BF
:100280009140084319467047064C074D06E0E06868
:1002900040F0010394E8070098471034AC42F6D3CD
:1002A000FFF776FF6021000880210008FEE70000CC
:1002B000014800F018BA000034000020014800F0A6
:1002C00012BA00005C00002038B50E4C4FF40075E7
:1002D00025600025A560E560082525610A4C050A12
:1002E00025706070080AA070E170100A20716271B8
:1002F000180AA071E3716B4622460249034800F0D8
:1003000089F838BD840200202B0000203400002032
:1003100038B50E4C40F2FF1525600025A560E5605C
:10032000082525610A4C050A25706070080AA0702E
:10033000E170100A20716271180AA071E3716B46B6
:1003400022460249034800F065F838BD6C020020DF
:10035000230000205C000020014800F047BC0000A2
:1003600064010020014800F041BC000004010020AD
:1003700001681823CAB2103AB2FBF3F2054B6FF3CF
:100380000901032A9B5CC36500D9091D81650846E4
:10039000704700004021000810B5014600208B691D
:1003A0008A6A4FF0C07453B1B3F5005F15D072B1D3
:1003B000012A0CD0022A0AD0032A09D104E01AB17A
:1003C000012A06D0022A03D1C96AC90100D5012039
:1003D00010BDC96AA142FAD010BD002AF7D0012A87
:1003E000F2D0022AF3D0032AF3D010BD7047704731
:1003F00090F82020012A07D0022A05D0416A41F452
:100400008021416201207047006842690A434261CD
:1004100000207047F0B590F820500468A468012DC2
:1004200005D0022D03D0416A41F480215DE014F033
:10043000406F01D1E50055D5C4F30164022C03D906
:10044000416A41F4000150E00125A5401D608D681E
:100450004FF4C0739DB1CE6835434E6845EAC6057A
:10046000066803EB0417F5514FF4C275076805EBF6
:1004700004150E697E51097D012905D009E00E8819
:10048000CD6845EA4655EBE701684E5946F480765B
:100490004E511179D579567941EA056195792D0446
:1004A00045EA062529434FF4C676056806EB04168F
:1004B000A9511178D57841EA0561957852782D04D3
:1004C00045EA022211434FF4C475026805EB041596
:1004D0005151006803EB0411425842F001024250AE
:1004E0000020F0BD416A41F4001141620120F0BDDD
:1004F00010B590F82020012A07D0022A05D0416AC1
:1005000041F480214162012010BD3B48D0F8002217
:1005100042F00102C0F80022D0F8002222F47C52FE
:10052000C0F80022D0F800224B6A42EA0322C0F849
:1005300000220A7D02F01F0301229A40D0F81C32EB
:100540009343C0F81C32CB69B3B9D0F80C32934353
:10055000C0F80C328C894B6864F31F434C6900EB84
:10056000C404C4F840320C890B6864F31F434C691F
:1005700000EBC404C4F84432CB69012B16D1D0F887
:100580000C321343C0F80C320C884B6864F31F43E1
:100590004C6900EBC404C4F840320C89CB6864F3A6
:1005A0001F434C6900EBC404C4F844328B69002B30
:1005B000D0F804320ED01343C0F804320B69002B7C
:1005C000D0F8143208D01343C0F81432096A012954
:1005D00004D008E09343EFE79343F5E7D0F81C120B
:1005E0001143C0F81C12D0F8001221F00101C0F82C
:1005F0000012002010BD000000640040704730B5BC
:1006000090F82040012C05D0022C03D0416A41F41F
:1006100080215DE00468002955D02469A40754D0E6
:100620004FF4D874056804EB01142D5915F0040536
:10063000956005682D594ED0ED08556005682C5918
:1006400004F00204D4604FF4DA74056804EB01147A
:100650002D5905F00F05156105682D59C5F30725BE
:10066000956105682C59240C54614FF4DC720468C0
:1006700002EB0112A4581C700468A458240A5C7090
:100680000468A458240C9C700468A258120EDA70F6
:100690004FF4DE72046802EB0112A4581C71046866
:1006A000A458240A5C710468A458240C9C71046842
:1006B000A258120EDA71006881B1016941F020017F
:1006C0000161002030BDE468A8E7416A41F40011EF
:1006D0004162012030BD6D0D1560AFE7C16841F08A
:1006E0002001C160EDE72DE9F05F054600680024B8
:1006F0004669D0F804908768D0F80CB0D0F810A004
:10070000D0F81880F10748D0F90714D00121816092
:10071000B80703D5284600F050FA0CE0780702D558
:100720004FF4006407E0380702D54FF4805402E02C
:10073000284600F041FAF80516D529684FF4807074
:100740008860B80503D5284600F039FA0CE0780532
:1007500002D544F4005407E0380502D544F480443F
:1007600002E0284600F02AFAF80316D529684FF46B
:1007700080308860B80303D5284600F022FA0CE0E8
:10078000780302D544F4004407E0380302D544F46A
:10079000803402E0284600F013FA300707D55FEAFC
:1007A000CB6004D52968102044F40074C860700739
:1007B0004FF0080707D55FEA0B7004D52868C760BB
:1007C000284600F099F9B00706D52868C068800768
:1007D00002D0284600F092F9700607D55FEACA6099
:1007E00004D52968102044F480640861B00607D558
:1007F0005FEA0A7004D528680761284600F0ACF962
:10080000F00606D528680069800702D0284600F067
:10081000A4F9B00308D55FEAC96005D5296810209E
:100820004860284600F09AF9F00307D55FEA09709E
:1008300004D528684760284600F0C4F9300446D53E
:100840005FEA497040D5F00504D55FEAC87001D071
:1008500044F00104B00504D55FEA887001D544F086
:100860000204700504D55FEA487001D544F0040421
:10087000300529D518F0700F26D008F070004028F8
:1008800015D006DC102809D020280AD0302816D12F
:100890000AE050280ED0602811D10EE044F0080480
:1008A0000DE044F010040AE044F0200407E044F0B6
:1008B000400404E044F0800401E044F480742868BB
:1008C000816921F070018161296804204860002C51
:1008D00005D0686A204368622846FFF78FFEBDE8AE
:1008E000F09F70B5040003D094F8200010B104E02C
:1008F000012070BD204600F081F82068016821F0D9
:100900000201016000F09AFB0546052604E000F0B4
:1009100095FB401B0A2811D8206840688007F6D450
:100920002068016841F00101016000F087FB054685
:100930000BE000F083FB401B0A2806D9606A40F4F4
:100940000030606284F82060D2E720684068C00709
:10095000EFD0207E0128206801683DD021F0800181
:100960000160607E01282068016838D021F04001D4
:100970000160A07E01282068016833D021F02001A9
:100980000160E07E0128206801682ED041F010014E
:100990000160207F01282068016829D021F008012A
:1009A0000160607F01282068016824D021F00401E3
:1009B0000160D4E902010843D4E904121143084359
:1009C0006168491E08432168C861002060620120F7
:1009D00084F82000002070BD41F08001C0E741F0A4
:1009E0004001C5E741F02001CAE721F01001CFE73F
:1009F00041F00801D4E741F00401D9E7F0B587B030
:100A0000044614216846FFF715FC364B3648DFF8DC
:100A1000D0E01968D4F800C0334A0325022609271C
:100A200010300024491CF44522D11960012907D156
:100A3000016841F000710160006800F000700590ED
:100A4000106840F0080010601068CDE9005600F012
:100A50000800CDE9047069462448CDE9024500F05C
:100A600011FA00221146142000F056FB142032E047
:100A7000DFF87CE0F44530D1D0F800C04CF0806C59
:100A8000C0F800C0D0F800C001290CF0806CCDF88F
:100A900014C0196007D1016841F00071016000685D
:100AA00000F000700590106840F0020010601068BF
:100AB00002AB00F0020005906020CDE9000683E85B
:100AC000B00069460B4800F0DDF9002211464020D5
:100AD00000F022FB402000F011FB07B0F0BD000049
:100AE000006400400C00002030380240000C02403E
:100AF00000680040000402407047000000B58BB061
:100B000001AB03AA0021FFF77AFD0398A0F20120B0
:100B100006281AD80E49C0B200EB800208700D49B1
:100B200001EB420031F812300381BDF804305BBAAA
:100B300021F81230BDF8061049BA4180BDF80810FE
:100B400049BA81809DF80A1081710BB000BD000088
:100B500022000020240200207047704770470000E8
:100B600070B5044690F82000012804D0606A40F473
:100B70000020606218E0022084F8200020680168EC
:100B800021F00101016000F059FA05460EE000BFB6
:100B900000F054FA401B0A2808D9606A40F400307B
:100BA0006062052084F82000012070BD2068406844
:100BB000C007EDD1606270BD7047704770477047E5
:100BC00070477047704790F83510022903D0802194
:100BD000416501207047052180F8351000680168E3
:100BE00021F0010101600020704700002DE9F84369
:100BF00004464FF00009CDF8009063484FF41651B9
:100C0000A56D0068B0FBF1F72E6894F85C10082021
:100C100000FA01F131420FD021680A6852070BD562
:100C20000A6822F004020A6094F85C108840A86008
:100C3000606D40F00100606594F85C104FF00108B1
:100C400008FA01F0304208D021684969090604D544
:100C5000A860606D40F00200606594F85C100420AC
:100C60008840304208D021680968890704D5A86007
:100C7000606D40F00400606594F85C1010208840BE
:100C8000304218D021680968090714D5A860206887
:100C90000168490304D50068000308D5A16C07E08A
:100CA0000168C90503D4016821F008010160216CC5
:100CB00009B12046884794F85C10202088403042D3
:100CC00031D021680968C9062DD5A86094F835008F
:100CD00005282068016806D0490347D5006800034D
:100CE0001DD4616C1CE021F016010160206841698F
:100CF00021F080014161206C08B9A06C20B120680E
:100D0000016821F00801016094F85C103F208840E0
:100D1000A86084F8349084F83580216D1FE0E16B81
:100D200009B120468847606D00282BD0606DC00750
:100D300014D0052084F835002068016821F00101F5
:100D400001600098401C0090B84203D820680068F9
:100D5000C007F6D184F8349084F83580E16C00291E
:100D600010D001B02046BDE8F04308470168C9052E
:100D7000D5D4016821F01001016084F8349084F822
:100D80003580CCE7BDE8F8831C0000202DE9F04158
:100D9000044600F053F906465CB1002584F834504F
:100DA000022084F835002068016821F0010101600B
:100DB0000DE00120BDE8F08100F040F9801B05281E
:100DC00005D920206065032084F83500F2E720680B
:100DD0000068C007F0D12268116820480140D4E9BA
:100DE00001031843D4E903363343184363691843B6
:100DF000A3691843E3691843236A18430843616AE7
:100E0000042903D1D4E90B13194308431060206867
:100E10004069666A20F0070130460E430127042826
:100E20000CD1A06A0643E06A40B12046FFF7B4FA4D
:100E300020B14020606584F83570BAE720684661CB
:100E40002046FFF795FA94F85C203F21914081609D
:100E5000656584F835700020ACE700003F8010F035
:100E600070B5044600F0EAF80546601C02D004485C
:100E70000078044400F0E2F8401BA042FAD370BDB1
:100E8000100000202DE9F84F00224FF00108032543
:100E90004FF00F0E0B6808FA02F42340A3426ED104
:100EA0004E68012E05D0022E03D0112E01D0122E35
:100EB00012D186684FEA420C05FA0CF7BE43CF68A0
:100EC00007FA0CF7374387604668A6430C79C4F3EA
:100ED0000014944034434460C668570005FA07FC88
:100EE0008C6826EA0C06BC403443C4604C68022C73
:100EF00001D0122C13D1D40800EB8404A346D4F8FB
:100F0000209054074FEAD46A0EFA0AF629EA060935
:100F10000E6906FA0AF646EA0906CBF8206006686A
:100F20000C7926EA0C0604F00304BC403443046048
:100F30004C68E40065D5364C266846F48046266049
:100F4000246822F0030604F480440094314C3444B5
:100F5000A446D4F808489607370F0EFA07F6B443AC
:100F60002D4EB04201D1002624E02C4EB04201D1DA
:100F700001261FE02A4EB04202D102261AE040E0CC
:100F8000284EB04201D1032614E0274EB04201D1D1
:100F900004260FE0254EB04201D105260AE0244E7A
:100FA000B04201D1062605E0224EB04201D107260B
:100FB00000E00826BE402643CCF808681E4E346880
:100FC0004F689C43FF0300D51C4334601A4C241D1A
:100FD00026684F689E43BF0300D51E432660164E09
:100FE000083634684F689C43FF0200D51C433460C8
:100FF000114E0C3634684F689C43BF0200D51C4329
:101000003460521C102AFFF445AFBDE8F88F000091
:101010004438024000300140000002400004024019
:1010200000080240000C0240001002400014024080
:1010300000180240001C0240003C0140014880684A
:1010400070470000100000200248816802781144B7
:1010500081607047100000200B4810B5016841F412
:1010600000710160016841F480610160016841F430
:1010700080710160032000F06FF8002000F006F896
:1010800000F024F8002010BD003C024070B50D4D6A
:1010900004464FF47A712878B1FBF0F00A490968E8
:1010A000B1FBF0F000F004FB48B9102C07D200228D
:1010B0002146501E00F030F800206C6070BD012009
:1010C00070BD0000100000201C0000200A4808B578
:1010D000016841F480410160006800F480400090A4
:1010E0000548001F016841F080510160006800F070
:1010F0008050009008BD000044380240002809DB01
:1011000000F01F02012191404009800000F1E02021
:10111000C0F8001170470000F0B40E4B1B680C467D
:10112000C3F30223C3F10705042D00D90425191DBB
:10113000072901D2002300E0DB1E012606FA05F193
:10114000491E214099409E40761E16403143F0BC16
:1011500000F01FBF0CED00E0064900F00702086830
:101160004FF6FF03184040EA0220034A104308608C
:10117000704700000CED00E00000FA052DE9F04793
:101180000E46050065D0DFF81481D8F80000F7B2EC
:1011900000F00F00B04207D288F80070D8F80000C5
:1011A00000F00F00B04254D128683D4C810712D5A1
:1011B000400703D5206840F4E050206028780007FD
:1011C00003D5206840F4604020602068A96820F0C2
:1011D000F000084320602878C0072DD030496868A7
:1011E0000839012812D0022813D0032811D0096829
:1011F000890700292DDA216821F0030101432160CC
:10120000FFF71CFF814641F2883A0EE00968890326
:10121000EFE709688901ECE7FFF710FFA0EB090190
:10122000514502D90320BDE8F0872068696800F0C5
:101230000C00B0EB810FEFD1D8F80010404601F060
:101240000F01B14207D90770006800F00F00B042EB
:1012500001D00120E7E72878400705D52068E96834
:1012600020F4E050084320602878000706D5206865
:10127000296920F4604040EAC100206000F038F89D
:101280002168084AC1F30311515CC840064908604F
:1012900006480068FFF7FAFE0020C4E7003C024061
:1012A00008380240482100081C00002014000020DB
:1012B0000448054900680968044AC1F38221515C69
:1012C000C84070471C000020083802405821000820
:1012D0000448054900680968044AC1F34231515C79
:1012E000C84070471C000020083802405821000800
:1012F000154810B5006810F00C02144813D01449BA
:10130000042A0FD0082A0ED10F4C241F226823680C
:1013100002F03F025B0207D52068C0F38810A0FBF3
:10132000010106E0084610BD2168C1F38811A1FB48
:1013300000010023FEF746FF2168C1F30141491C6B
:101340004900B0FBF1F010BD083802400024F40061
:10135000001BB7002DE9F84F04006ED02078DFF8AD
:101360003C93C007A9F104054AD009F104000168C3
:10137000C1F38101012908D00068C0F3810002286F
:101380000AD1D9F80000400206D52868800337D575
:1013900060680028E1D033E06068B0F5803F10D08D
:1013A000B0F5A02F286810D020F48030286028687D
:1013B00020F4802028606068A8B1FFF73FFE064651
:1013C0000DE0286840F48030F4E740F48020286085
:1013D000F7E700BFFFF732FE801B642873D8286848
:1013E0008003F7D50CE0FFF729FE064605E000BFB5
:1013F000FFF724FE801B6428F0D828688003F7D408
:101400002078DFF89C8280074FF0000A3ED5A34881
:10141000001D016811F00C0F08D00068C0F38100B6
:1014200002280BD1D9F80000400207D428688007B1
:1014300016D5E068012800D112E02BE1E068B8B1D0
:101440000120C8F80000FFF7F9FD064605E000BFDF
:10145000FFF7F4FD801B0228C0D828688007F7D565
:101460002868216920F0F80040EAC10028600DE0FA
:10147000C8F800A0FFF7E2FD064604E0FFF7DEFD36
:10148000801B02281FD828688007F7D4207800071F
:1014900022D5824E83486169703671B101210160A5
:1014A000FFF7CCFD074604E0FFF7C8FDC01B02288C
:1014B00009D830688007F7D50EE0C0F800A0FFF724
:1014C000BDFD074605E082E0FFF7B8FDC01B02281E
:1014D0007DD830688007F7D42078400768D5DFF8DA
:1014E000BCB100270BF13C0BDBF80000C0000BD4B3
:1014F000DBF8001041F08051CBF80010DBF8000061
:10150000012700F080500090674E3068C00510D46D
:10151000306840F480703060FFF790FD009005E087
:10152000FFF78CFD0099401A022850D83068C0059A
:10153000F6D55A4EA0686C3601280FD005283068C1
:1015400010D020F001003060306820F004003060DE
:10155000A068B8B1FFF772FD00900FE0306840F06E
:101560000100F4E740F004003060F7E7FFF766FDA4
:101570000099411A41F28830814266D8306880076C
:10158000F4D50EE0FFF75AFD009007E0FFF756FD97
:101590000099411A41F28830814256D8306880075C
:1015A000F4D42FB1DBF8001021F08051CBF80010FB
:1015B000A069C8B33949091D0968C1F3810102292D
:1015C0004AD00228504607D0C8F8600000E03CE04E
:1015D000FFF734FD04463BE04746C8F86000FFF7DC
:1015E0002DFD064605E000BFFFF728FD801B022801
:1015F0002BD828688001F7D4D4E907010843A16AF1
:101600002A4A490802EB0141626A41EA8211084311
:1016100094F82C1040EA0161C9F8001001203866E6
:10162000FFF70CFD044606E036E000BFFFF706FDBD
:10163000001B022809D828688001F7D52CE000BFDC
:10164000FFF7FCFC001B022802D90320BDE8F88F3D
:1016500028688001F4D41FE00128F7D0D9F80000F1
:10166000E26900F48001914214D1226A00F03F0146
:1016700091420FD147F6C071626A0140914209D18F
:10168000A26A00F44031914204D1E16A00F0706036
:10169000884201D00120D9E70020D7E70438024072
:1016A00000004742800E4742007000400000FFFFEC
:1016B00010B5401EB0F1807F01D3012010BD4FF066
:1016C000E02460610F21601700F063FC0020A0613E
:1016D00007202061002010BD7047000070B502682F
:1016E00004461068D168536910F00F0F52D003F010
:1016F000010501F490762E435FD0C20705D0CA05DC
:1017000003D5E26B42F00102E263420705D5DA0736
:1017100003D0E26B42F00202E263820705D5DA07EA
:1017200003D0E26B42F00402E263020707D501F046
:1017300020022A4303D0E26B42F00802E263E26B2C
:10174000002A33D0800604D5880602D5204600F052
:10175000ADFA20684069E16BC0F38010090700D43E
:1017600028B3204600F094FA2068416949061AD54A
:10177000416921F040014161606BA0B11B490165E5
:10178000606BFFF720FA002810D0606B016DBDE898
:1017900070400847830610D58B060ED52046BDE85D
:1017A000704000F083BA2046FFF796FF70BD2046D8
:1017B000FFF792FF0020E06370BD030606D50B061D
:1017C00004D52046BDE8704000F050BB4006F3D57C
:1017D0004806F1D5D168204621F04001D160202192
:1017E00084F8391000F0EDF870BD0000811C00088D
:1017F00070B5040004D094F83900002510B106E05B
:10180000012070BD84F83850204600F023F82420D1
:1018100084F839002068C16821F40051C160204675
:1018200000F090FA2068016921F49041016120687C
:10183000416921F02A0141612068C16841F40051E9
:10184000C160E563202084F8390084F83A00002064
:1018500070BD00002DE9F04F87B0064614216846A0
:10186000FEF7E8FC4D4B316800244D480225032269
:1018700007274FF000694FF4806A4FF4403B9942CC
:101880004AD1474914310B6843F010030B600968D3
:1018900001F010010591016841F002010160016849
:1018A00001F002010591016841F001010160006849
:1018B000CDE9024200F0010005908020CDE900054D
:1018C0009046694604973748FFF7DCFA2802CDE9CD
:1018D0000005CDE90248694604973348FFF7D2FA7C
:1018E000334D3248E5E802094020A5E811043048AC
:1018F00045F81449AC61C5E9074B6C62FFF746FA3D
:1019000008B1FEF774FD3563002211462520AE6351
:10191000FFF702FC25203BE0264B99423AD12049B3
:1019200010310B6843F480230B60096801F48021B7
:101930000591016841F0040101600068CDE90242AF
:1019400000F0040005904FF44060CDE900056946C1
:1019500004971948FFF796FA154D18486035286026
:10196000C5E90194C5E9034A80156C61C5E90640E3
:10197000C5E908B42846FFF709FA08B1FEF737FDB4
:101980007563002211462720AE63FFF7C5FB2720B1
:10199000FFF7B4FB07B0BDE8F08F00000010014076
:1019A000303802400004024000000240B8640240A7
:1019B0000401002000480040000802402860024066
:1019C00070477047FEE700000F4810B50D490160F1
:1019D0000321416000214FF410228160C0E903120D
:1019E0004FF400124261017641768176C17601772B
:1019F0004177FEF776FF002803D0BDE81040FEF7E0
:101A0000F6BC10BD00640040340000200F4810B543
:101A10000D4901600321416000214FF410228160D3
:101A2000C0E903124FF400124261017641768176DB
:101A3000C17601774177FEF754FF002803D0BDE857
:101A40001040FEF7D4BC10BD006800405C000020D0
:101A5000114808B5016841F400110160016801F402
:101A600000110091016841F48001016000680022CA
:101A700000F48000009011460C20FFF74DFB0C2075
:101A8000FFF73CFB002211464620FFF745FBBDE86F
:101A900008404620FFF732BB30380240154808B5F1
:101AA000016841F002010160016801F0020100914A
:101AB000016841F001010160016801F0010100913C
:101AC000016841F008010160016801F0080100911E
:101AD000016841F004010160016801F00401009116
:101AE000016841F080010160006800F08000009012
:101AF00008BD0000303802400C4810B50A490160AA
:101B00004FF4E1314160002181600C22C160C0E9E5
:101B100004128161C161FFF76BFE002803D0BDE8AC
:101B20001040FEF764BC10BD00100140840000208E
:101B30000D4810B50B4901600C49416000214FF47C
:101B400080628160C0E903120C22C0E90521C161F5
:101B5000FFF74EFE002803D0BDE81040FEF747BC5B
:101B600010BD000000480040C4000020A086010015
:101B7000FEE770477047000030B5144B1C6865697C
:101B800045F0400565611B68DC6844F01004DC60CA
:101B90000F4B1C68256825F0010525601C68256829
:101BA000ED07F7D11D680B4CAC601C68E06018684D
:101BB0000161186842601868016841F48021016081
:101BC0001868016841F00101016030BDC4000020C7
:101BD00064010020044800407047FFF735BA000058
:101BE00030B593B030216846FEF724FB14210CA8D1
:101BF000FEF720FB19480025016841F08051016083
:101C0000006800F0805011901548016841F480414F
:101C100001600068022400F48040119001200090CF
:101C2000000401908001CDE9064006200890A8201C
:101C3000CDE9090404200B906846FFF78BFB0CA943
:101C40000F2081E831004FF4A0500F90E002109077
:101C500005210CA8FFF792FA13B030BD40380240BE
:101C6000007000400548016841F4700101600349BB
:101C70004FF00060803908607047000088ED00E098
:101C800010B5806B0021C185C184FFF725FD10BD13
:101C90000168CA6822F49072CA6001684A6922F039
:101CA00001024A61202180F83A10704710B590F87F
:101CB0003A10222901D0022010BD8168B1F5805F61
:101CC00011D00169002901681FD0496801F07F0324
:101CD000816A4A1C82620B70C18D491E0904090C7D
:101CE000C18518D02BE00269816A002A0268526817
:101CF00005D0D2B20A80816A491C8162ECE7C2F346
:101D000008020A80816A891CF7E74A68816A4B1CCD
:101D100083620A70E0E70168CA6822F02002CA60A4
:101D20000168CA6822F48072CA6001684A6922F0B8
:101D300001024A61202180F83A10FFF741FE00209D
:101D400010BD00002DE9F041044600680169E26819
:101D500021F44051114301612169A068E2690843FF
:101D60006169114308432168CA6849F20C639A43C8
:101D70000243CA6020684169A26921F4407111439D
:101D80004161E069192764253226B0F5004F354AD4
:101D9000354920684FF0000806D0884201D09042B3
:101DA00036D1FFF795FA35E0884201D0904202D152
:101DB000FFF78EFA01E0FFF77BFA61684A18A0FB93
:101DC000070148EB0803FEF7FDF90146B0FBF5F00B
:101DD0000201B1FBF5F06FF01803584301EB8000EE
:101DE00006EBC000B0FBF5F000F0F80002EB40029B
:101DF000B1FBF5F0584301EB800006EBC000B0FBEF
:101E0000F5F000F00700216810448860BDE8F0811B
:101E1000FFF74EFA61688B0F8A00A0FB0701FEF7FF
:101E2000D1F90146B0FBF5F06FF01802504301EB19
:101E3000800006EB0010B0FBF5F000F0F002B1FB03
:101E4000F5F002EB0012B1FBF5F06FF01803584308
:101E500001EB800006EB0010B0FBF5F000F00F0086
:101E6000D1E70000001401400010014090F8391043
:101E7000212901D0022070478168B1F5805F016A95
:101E80000BD04A1C0262026809785160C18C491E5D
:101E90000904090CC1840ED017E009880268C1F357
:101EA0000801516001690029016A02D0491C0162E0
:101EB000ECE7891CFBE70168CA6822F08002CA606F
:101EC0000068C16841F04001C16000207047000017
:101ED0000148FFF703BC000084000020264818B426
:101EE00000680168890604D501684068009018BC44
:101EF000704722490968C906F9D501684068204A37
:101F00000090106801684FF024030C031D49046819
:101F100024F00104046016D410684468C4F1240459
:101F2000A4B20C8043601068016841F40021016094
:101F30001068016841F001010160122CD7D11249EB
:101F400001F1160015E014686068C0F1240080B249
:101F5000088063600D498B6A23F400238B6211684B
:101F60000A6842F001020A601228C0D1064901F154
:101F70003A0018BC00F09EB8C400002000480040A1
:101F80006401002020000020C40100200060024005
:101F9000FEE70907090E002804DB00F1E02080F8C5
:101FA0000014704700F00F0000F1E02080F8141DCD
:101FB000704702E008C8121F08C1002AFAD1704712
:101FC0007047002001E001C1121F002AFBD17047B9
:101FD00000B58BB000200121CDE9060108910090E9
:101FE0000190029003900590049069460C48FEF71A
:101FF0007FFA0B48FEF7B4FD02210948FEF7F8F915
:102000000E200990059069460648FEF771FA0548CA
:10201000FEF7A6FD02210348FEF7EAF90BB000BD6A
:10202000340000205C00002000487047C4010020FC
:10203000FFF712F8FFF7D4FDFFF730FDFFF708FDBB
:10204000FFF75AFDFFF774FDFFF7BEFCFFF7DEFC5C
:10205000FFF7BEFF1148FEF751FD1048FEF74EFD99
:1020600000F020F800F062F8FFF7DEFF0C4CA060F3
:102070000088C0EB001000B26080034602460146B3
:10208000FEF746F9B4F902301A4618461146FEF733
:102090001BF90120FEF7E4FEA068E9E75C000020E0
:1020A0000000002002492422A1F12400FFF764BDB2
:1020B000FE01002070B5002836D0002934D0027807
:1020C000437842EA0322C2F30A020A804378847802
:1020D000DB0843EA4413C3F30A034B808478C578D2
:1020E000A40944EA8504057944EA8524C4F30A0472
:1020F0008C80057946796D0845EAC615C5F30A0551
:10210000CD804679C6F301168E724079A2F58062C1
:102110008009C8720A80A3F580634B80A4F58064AF
:102120008C80A5F58065CD8070BD000003480068F7
:10213000416941F080014161704700008400002046
:102140000006101600061016000000000000000037
:10215000010203040607080900000000010203044D
:10216000802100080000002034000000B21F000899
:10217000B4210008340000206C060000C21F0008D3
:10218000000000000000000000000000000000004F
:102190000100000010000000000000000024F40016
:1021A000000000000000000000000000000000002F
:0421B000000000002B
:040000050800018965
:00000001FF
